:1000000012C0189518951895189518951895189563
:100010001895189518951895189518951895189578
:100020001895189518958FE58DBFC8E3E0E24E2E20
:1000300084E08EBFD4E0F4E05F2EA89584B7082E4C
:10004000877F84BF88E1992781BD91BDEEEFF3E002
:10005000A0E6B0E088278D933197E9F783E389B96B
:1000600080E080BD88E18AB966248FEF87BB8D9AD6
:100070008E9A8F9AA298A39874B7777F74BF8EE1F7
:1000800081BD86E081BD86E886B980E487B9379A6C
:10009000969A88E893E18CD3969881B5886081BD63
:1000A00063D3A7E7B0E08C9300917700013009F0AB
:1000B0000AC05ED3A8E7B0E08C93009178000A32C2
:1000C00009F001C044C000919200003010F009F026
:1000D00001C005C0809192008150809392000091F0
:1000E0009200043609F001C0959A00919200003008
:1000F00009F001C09598A0E6B0E00D911C91003088
:1001000050E0150710F009F001C003C0A0E6B0E010
:1001100008D3A0E6B0E00D911C91043F51E0150713
:1001200009F001C0979AA0E6B0E00D911C91003053
:1001300050E0150709F007C0979884E398E0A0E61F
:10014000B0E08D939C93A895ABCFF894FFCFF3D3F9
:10015000A9E7B0E0EFE0F5D2EBD385E0E9E7F0E026
:1001600001E00A93ABE8B0E0BBD387E0E9E7F0E059
:1001700002E00A93ADE8B0E0B3D38AE0E9E7F0E04B
:1001800001E00A93A0E9B0E0ABD3ABE8B0E0ECE368
:10019000F9E0BBD381E009F080E08F93ADE8B0E0F7
:1001A000EEE3F9E0B2D381E009F080E09F9189238A
:1001B000882309F461C070919F00706870939F005C
:1001C00081E08093A0000091A000063010F009F0BB
:1001D00013C0ADE8B0E0E2E4F9E004D3ADE8B0E08C
:1001E000A7D2E0EAF0E02ED34EC0A0EAB0E08C91B6
:1001F0008F5F8C9308F4E7CF81E08093A00000919B
:10020000A000043010F009F013C0ADE8B0E0E2E463
:10021000F9E0E8D2ADE8B0E08BD2E0EAF0E012D34A
:1002200047C1A0EAB0E08C918F5F8C9308F4E7CFD0
:10023000A2E6B0E0E4E4F9E0D5D2A2E6B0E078D2FC
:10024000E8E3F0E0FFD2A2E6B0E09CD2A1D2A2E6C1
:10025000B0E0EEE4F9E0C6D2A2E6B0E069D2E8E3AD
:10026000F0E0F0D2A2E6B0E08DD292D270919F0081
:100270007F7770939F0014CFABE8B0E0E8E5F9E03A
:1002800044D309F00EC187E680939200C09B05C05D
:10029000A1EAB0E08C918F5F8C93ADE8B0E0EEE323
:1002A000F9E033D309F025C0A0E9B0E0EAE5F9E0D0
:1002B0002CD309F001C0C09AA0E9B0E0E2E4F9E073
:1002C00024D309F001C0C098A2E6B0E0ECE5F9E063
:1002D00089D2A8E3B0E08C9180FBA2E6B0E028D2FE
:1002E00093D28D9388278C93A2E6B0E04BD250D264
:1002F000D8C0E8E6F9E009D309F025C0A0E9B0E0EC
:10030000EAE5F9E002D309F001C0C19AA0E9B0E042
:10031000E2E4F9E0FAD209F001C0C198A2E6B0E047
:10032000ECE6F9E05FD2A8E3B0E08C9181FBA2E6B5
:10033000B0E0FED169D28D9388278C93A2E6B0E01D
:1003400021D226D2AEC0E8E7F9E0DFD209F025C01D
:10035000A0E9B0E0EAE5F9E0D8D209F001C0C29A1C
:10036000A0E9B0E0E2E4F9E0D0D209F001C0C2981F
:10037000A2E6B0E0ECE7F9E035D2A8E3B0E08C917A
:1003800082FBA2E6B0E0D4D13FD28D9388278C9334
:10039000A2E6B0E0F7D1FCD184C0E8E8F9E0B5D23C
:1003A00009F025C0A0E9B0E0EAE5F9E0AED209F035
:1003B00001C0C39AA0E9B0E0E2E4F9E0A6D209F0F6
:1003C00001C0C398A2E6B0E0ECE8F9E00BD2A8E3E4
:1003D000B0E08C9183FBA2E6B0E0AAD115D28D9358
:1003E00088278C93A2E6B0E0CDD1D2D15AC0E8E9FB
:1003F000F9E08BD209F025C0A0E9B0E0EAE5F9E028
:1004000084D209F001C0C49AA0E9B0E0E2E4F9E0C6
:100410007CD209F001C0C498A2E6B0E0ECE9F9E0B2
:10042000E1D1A8E3B0E08C9184FBA2E6B0E080D1FA
:10043000EBD18D9388278C93A2E6B0E0A3D1A8D10D
:1004400030C0E8EAF9E061D209F02BC0A0E9B0E0E1
:10045000EAE5F9E05AD209F001C0C59AA0E9B0E096
:10046000E2E4F9E052D209F001C0C598A2E6B0E09A
:10047000ECEAF9E0B7D1A8E3B0E08C9185FBA2E605
:10048000B0E056D1C1D18D9388278C93A2E6B0E01D
:1004900079D17ED1AFE9B0E08C9187FB0EF001C03D
:1004A0000895ABE8B0E0E8EBF9E02FD209F036C1EF
:1004B000ADE8B0E0EEE3F9E028D209F06EC007B194
:1004C000007F006007B993D1ABE9B0E08D939C93B6
:1004D000ABE9B0E00D911C91073E53E0150710F019
:1004E00009F001C006C087EE93E0ABE9B0E08D9360
:1004F0009C9387E680939200A3E9B0E0EBE9F0E0FB
:1005000095D1A3E9B0E0FBD1082F023008F017C065
:1005100085E062D1E3E9F0E0A881B981DCD1A3E90B
:10052000B0E0E2E4F9E05ED1E881F981A3E9B0E06E
:10053000FFD0D1D185E0481A80E0580A2296A3E97D
:10054000B0E0DDD1082F033008F017C085E044D1BA
:10055000E3E9F0E0A881B981BED1A3E9B0E0E2E42B
:10056000F9E040D1E881F981A3E9B0E0E1D0B3D16D
:1005700085E0481A80E0580A2296A2E6B0E0EAEB4D
:10058000F9E030D1E3E9F0E0A2E6B0E0D1D0A3D1C8
:10059000A2E6B0E0F7D0FCD0C1C0E8E6F9E0B5D102
:1005A00009F06EC007B1007F016007B920D1ADE945
:1005B000B0E08D939C93ADE9B0E00D911C91073EA6
:1005C00053E0150710F009F001C006C087EE93E074
:1005D000ADE9B0E08D939C9387E680939200A7E904
:1005E000B0E0EDE9F0E022D1A7E9B0E088D1082F32
:1005F000023008F017C085E0EFD0E7E9F0E0A8810D
:10060000B98169D1A7E9B0E0E2E4F9E0EBD0E88193
:10061000F981A7E9B0E08CD05ED185E0481A80E08E
:10062000580A2296A7E9B0E06AD1082F033008F0F3
:1006300017C085E0D1D0E7E9F0E0A881B9814BD1BE
:10064000A7E9B0E0E2E4F9E0CDD0E881F981A7E9DB
:10065000B0E06ED040D185E0481A80E0580A22967A
:10066000A2E6B0E0E4ECF9E0BDD0E7E9F0E0A2E614
:10067000B0E05ED030D1A2E6B0E084D089D04EC0E8
:10068000E8E7F9E042D109F01FC087E680939200C5
:10069000A3E3B0E08C9182FB80F9809580FBA9E810
:1006A000B0E0882780F98C93A2E6B0E0EEECF9E0A8
:1006B00099D0A2E6B0E03CD0E9E8F0E0C3D0A2E6F1
:1006C000B0E060D065D02AC0E8E8F9E01ED109F0BA
:1006D00025C087E680939200A3E3B0E08C9183FB72
:1006E00080F9809580FBAAE8B0E0882780F98C9398
:1006F000A2E6B0E0EAEDF9E075D0A2E6B0E018D0ED
:10070000EAE8F0E09FD0A2E6B0E03CD041D0AFE90B
:10071000B0E08C9187FB0EF001C00895C1CCF89435
:10072000FFCFED91FC91E150F040FC93EE930895E2
:100730008F938D918823E9F711978F910895A8E001
:10074000B4E01AD08D3039F0EE23D9F38D93EA95C9
:1007500063FE21D0F6CF63FC04C08DE01CD08AE09C
:100760001AD088278C93089581E05F9B882708958D
:1007700088275F9B089500C05F9BFECF8CB10895D2
:10078000A8E0B4E08D91882311F005D0FBCF089547
:100790008DE001D08AE05D9BFECF8CB90895319742
:1007A000F1F70895689462F80895E89462F808955E
:1007B000EF93FF93EE27E82BE92B31F0E0EDF7E024
:1007C0003197F1F70197D1F7FF91EF9108950191DA
:1007D000119121913081089599275A924A92480E99
:1007E000591E08950DD00D920020E1F70895369A14
:1007F0003699FECF369A3699FECF84B195B10895D9
:10080000C89531960020089580E30EF483950895ED
:10081000000F111F221F331F08950095109520957A
:1008200030950F5F1F4F2F4F3F4F0895019110815B
:100830000BC0CDDF0BC00191108117FF05C03FEF4A
:100840002FEF04C0008111272227332737FF03C071
:10085000E4DF8DE28D93CF92DF92EF92AA24BB2446
:10086000CC24DD24EE2440E2EAE0FF2755E093E3C8
:100870008081890F87FD9F7083FD907F891B819305
:100880005A95A9F7C5DFAA1CBB1CCC1CDD1CEE1CAD
:100890004A9551F7E894EFE0FF2782910CD0EB30B6
:1008A000E0F71EF068948A2D0AD088278D93EF9088
:1008B000DF90CF900895982F829501D0892F8F7067
:1008C000805D26F0803309F4089568948D9308952F
:1008D00088278D93089581918D938823E1F708955A
:1008E00009919191992351F08A95D9F73197002375
:1008F00029F081918D930A958823C9F7E9CF8FEF6D
:1009000083959D919923E1F70895689401C0E89437
:10091000AF93BF938D9116F0919102C071DF902D2E
:10092000891718F011F48823A9F7BF91AF910895A2
:10093000E89463F80895689463F80895730030317B
:10094000000030003030333A733A30313A00303002
:10095000333A733A30323A006F0031003030333A74
:100960006F3A30313A303000303200003030333AB4
:100970006F3A30323A303000303300003030333AA2
:100980006F3A30333A303000303400003030333A90
:100990006F3A30343A303000303500003030333A7E
:1009A0006F3A30353A303000303600003030333A6C
:1009B0006F3A30363A30300069003030333A693AB5
:1009C00030313A003030333A693A30323A00303020
:1009D000333A693A30333A3030003030333A693A9A
:0609E00030343A30300013
:00000001FF
