:1000000012C0189518951895189518951895189563
:100010001895189518951895189518951895189578
:100020001895189518958FE58DBFC8E3E0E24E2E20
:1000300084E08EBFD4E0F4E05F2EA89584B7082E4C
:10004000877F84BF88E1992781BD91BDEEEFF3E002
:10005000A0E6B0E088278D933197E9F783E389B96B
:1000600080E080BD88E18AB966248FEF87BB8D9AD6
:100070008E9A8F9AA298A39886E886B980E487B969
:10008000379A88EE93E0A6E6B0E08D939C9388E8DB
:1000900093E109D6E4D5A4E8B0E08C930091840004
:1000A000013009F005C0DFD5A5E8B0E08C9301C0B0
:1000B00006C0009185000A3209F001C097C383E0B1
:1000C0008093810000918100043010F009F058C045
:1000D000A1E8B0E0AD90BB24ACE7B0E0AA0DBB1D39
:1000E0000C91013009F045C087E68093A100A2E899
:1000F000B0E0E1E8F0E023D6A2E8B0E07DD6082F3A
:10010000023008F017C083E0E2D5E2E8F0E0A88111
:10011000B9815ED6A2E8B0E0E6E3FEE0DED5E88194
:10012000F981A2E8B0E07FD553D683E0481A80E099
:10013000580A2296A8E6B0E0E8E3FEE0CED5E2E871
:10014000F0E0A8E6B0E06FD543D6A8E6B0E06BD506
:10015000E0E4FEE0C2D5A8E6B0E08FD5A8E6B0E0C6
:10016000CED5082FA8E0B4E0E0E1F0E0E8D583D5F3
:100170008AD5A1E8B0E08C918F5F8C9308F4A2CF70
:1001800000917D00013009F03FC007B1007F0060A1
:1001900007B9A8D5A0E6B0E08D939C93A0E6B0E0A7
:1001A0000D911C91073E53E0150710F009F001C0B6
:1001B00006C087EE93E0A0E6B0E08D939C9387E6BF
:1001C0008093A100A8E6B0E0E4E4FEE086D5A8E6CE
:1001D000B0E029D5E0E6F0E0A6D5A8E6B0E023D56A
:1001E000EEE4FEE07AD5A8E6B0E047D5A8E6B0E0B8
:1001F00086D5082FA8E0B4E0E0E1F0E0A0D53BD53B
:1002000042D580E080937D0000917E00013009F0AE
:100210003FC007B1007F016007B964D5A2E6B0E036
:100220008D939C93A2E6B0E00D911C91073E53E0A4
:10023000150710F009F001C006C087EE93E0A2E6B2
:10024000B0E08D939C9387E68093A100A8E6B0E090
:10025000E0E5FEE042D5A8E6B0E0E5D4E2E6F0E075
:1002600062D5A8E6B0E0DFD4EEE4FEE036D5A8E63D
:10027000B0E003D5A8E6B0E042D5082FA8E0B4E08E
:10028000E0E1F0E05CD5F7D4FED480E080937E001E
:100290009A991EC000917F00003009F016C087E6D1
:1002A0008093A100A8E6B0E0EAE5FEE016D5A8E656
:1002B000B0E0E3D4A8E6B0E022D5082FA8E0B4E08F
:1002C000E0E1F0E03CD5D7D4DED48AEF80937F0024
:1002D0009B991EC000918000003009F016C087E68F
:1002E0008093A100A8E6B0E0E6E6FEE0F6D4A8E63A
:1002F000B0E0C3D4A8E6B0E002D5082FA8E0B4E08F
:10030000E0E1F0E01CD5B7D4BED48AEF8093800042
:1003100083E08093810000918100043010F009F0A7
:100320001EC0A1E8B0E0AD90BB24ACE7B0E0AA0DE0
:10033000BB1D0C91003010F009F001C009C0A1E80C
:10034000B0E0AD90BB24ACE7B0E0AA0DBB1D60D41B
:10035000A1E8B0E08C918F5F8C9308F4DCCF81E052
:100360008093B5000091B500063010F009F025C06B
:10037000A5EBB0E0AD90BB24A7EAB0E0AA0CBB1C93
:10038000AA0DBB1D0D911C91003050E0150710F017
:1003900009F001C00BC0A5EBB0E0AD90BB24A7EA0B
:1003A000B0E0AA0CBB1CAA0DBB1D36D4A5EBB0E077
:1003B0008C918F5F8C9308F4D5CF81E08093B5004A
:1003C0000091B500053010F009F03AC0A5EBB0E09F
:1003D000AD90BB24A1EAB0E0AA0DBB1D0C91013089
:1003E00081E009F080E08F93A5EBB0E0AD90BB24F5
:1003F000A7EAB0E0AA0CBB1CAA0DBB1D0D911C9175
:10040000003050E0150781E009F080E09F918923DA
:10041000882309F40EC08BE992E0A5EBB0E0AD9023
:10042000BB24A7EAB0E0AA0CBB1CAA0DBB1D8D9390
:100430009C93A5EBB0E08C918F5F8C9308F4C0CFB8
:100440000091A700023081E009F080E08F93A3EBD8
:10045000B0E00D911C91003050E0150781E009F0EB
:1004600080E09F918923882309F406C089E893E1FD
:10047000A3EBB0E08D939C930091A700013009F0AD
:1004800028C081EB94E0A3EBB0E08D939C9380E0D7
:100490008093A700A8E6B0E0E2E7FEE01ED4A8E65D
:1004A000B0E0C1D3E7EAF0E04AD4A8E6B0E0BBD3BD
:1004B000EEE4FEE012D4A8E6B0E0DFD3A8E6B0E0B8
:1004C0001ED4082FA8E0B4E0E0E1F0E038D4D3D3A4
:1004D000DAD3A9EAB0E00D911C910E3451E0150772
:1004E00081E009F080E08F930091A800003081E066
:1004F00009F080E09F918923882309F401C0C09A04
:10050000A9EAB0E00D911C91013050E0150709F007
:1005100001C0C098ABEAB0E00D911C910E3451E0DF
:10052000150781E009F080E08F930091A80000306A
:1005300081E009F080E09F918923882309F401C0BC
:10054000C19AABEAB0E00D911C91013050E0150763
:1005500009F001C0C198ADEAB0E00D911C910E34D4
:1005600051E0150781E009F080E08F930091A80029
:10057000003081E009F080E09F918923882309F40D
:1005800001C0C29AADEAB0E00D911C91013050E07B
:10059000150709F001C0C298AFEAB0E00D911C91B7
:1005A0000E3451E0150781E009F080E08F9300914F
:1005B000A800003081E009F080E09F918923882322
:1005C00009F401C0C39AAFEAB0E00D911C9101306B
:1005D00050E0150709F001C0C398A1EBB0E00D9100
:1005E0001C910E3451E0150781E009F080E08F93F3
:1005F0000091A800003081E009F080E09F918923FC
:10060000882309F401C0C49AA1EBB0E00D911C91BC
:10061000013050E0150709F001C0C498A3EBB0E029
:100620000D911C910D3454E0150781E009F080E034
:100630008F930091A800003081E009F080E09F9145
:100640008923882309F401C0C59AA3EBB0E00D917A
:100650001C910D3B52E0150709F001C0C598A3EBB2
:10066000B0E00D911C910D3251E0150781E009F0C9
:1006700080E08F930091A800003081E009F080E0D5
:100680009F918923882309F401C0C59AA3EBB0E0A8
:100690000D911C91093C50E0150709F001C0C59867
:1006A000A3EBB0E00D911C91053650E0150781E0F9
:1006B00009F080E08F930091A800003081E009F0FC
:1006C00080E09F918923882309F401C0C59AA3EB98
:1006D000B0E00D911C91013050E0150709F001C008
:1006E000C5980091A100003010F009F001C005C0CC
:1006F0008091A10081508093A1000091A100043657
:1007000009F001C0959A0091A100003009F001C0E4
:100710009598A6E6B0E00D911C91003050E01507C9
:1007200014F009F001C003C0A6E6B0E075D2A6E659
:10073000B0E00D911C91003050E0150709F01CC08D
:1007400087E68093A100A8E6B0E0ECE7FEE0C5D222
:10075000A8E6B0E092D2A8E6B0E0D1D2082FA8E097
:10076000B4E0E0E1F0E0EBD286D28DD280E29EE40C
:10077000A6E6B0E08D939C93A4E6B0E00D911C91A9
:10078000003050E0150710F009F001C003C0A4E6E6
:10079000B0E042D2A4E6B0E00D911C91043F51E0DC
:1007A000150709F00CC00091A800013009F001C044
:1007B000969A0091A800003009F001C0979AA4E62B
:1007C000B0E00D911C91003050E0150709F008C011
:1007D0009698979884E398E0A4E6B0E08D939C9374
:1007E00081E090E060D256CCF894FFCF21D3A6E808
:1007F000B0E0EFE021D219D3E6E8F0E003E0A6E9AB
:10080000B0E0F2D285E0E6E8F0E001E00A93AAE980
:10081000B0E0E3D287E0E6E8F0E002E00A93ACE97A
:10082000B0E0DBD28AE0E6E8F0E001E00A93AFE96D
:10083000B0E0D3D2A6E9B0E0E8E8FEE0E3D209F008
:10084000E4C1AAE9B0E0ECE8FEE0DCD209F09DC129
:1008500087E68093A100ACE9B0E0EEE8FEE0D2D2FA
:1008600009F034C0AFE9B0E0E2E9FEE0CBD209F034
:1008700003C081E08093A200AFE9B0E0E6E3FEE0D0
:10088000C1D209F003C080E08093A200A8E6B0E0E6
:10089000E4E9FEE022D2A8E6B0E0C5D1E2EAF0E069
:1008A0004ED2A8E6B0E0BFD1EEE4FEE016D2A8E654
:1008B000B0E0E3D1A8E6B0E022D2082FA8E0B4E08F
:1008C000E0E1F0E03CD2D7D1DED15FC1EEE9FEE05D
:1008D00099D209F034C0AFE9B0E0E2E9FEE092D28B
:1008E00009F003C081E08093A300AFE9B0E0E6E344
:1008F000FEE088D209F003C080E08093A300A8E660
:10090000B0E0E2EAFEE0E9D1A8E6B0E08CD1E3EAAB
:10091000F0E015D2A8E6B0E086D1EEE4FEE0DDD14D
:10092000A8E6B0E0AAD1A8E6B0E0E9D1082FA8E097
:10093000B4E0E0E1F0E003D29ED1A5D126C1ECEA1B
:10094000FEE060D209F034C0AFE9B0E0E2E9FEE0D9
:1009500059D209F003C081E08093A400AFE9B0E070
:10096000E6E3FEE04FD209F003C080E08093A400EC
:10097000A8E6B0E0E0EBFEE0B0D1A8E6B0E053D1ED
:10098000E4EAF0E0DCD1A8E6B0E04DD1EEE4FEE030
:10099000A4D1A8E6B0E071D1A8E6B0E0B0D1082FAC
:1009A000A8E0B4E0E0E1F0E0CAD165D16CD1EDC0DF
:1009B000EAEBFEE027D209F034C0AFE9B0E0E2E9AB
:1009C000FEE020D209F003C081E08093A500AFE9EA
:1009D000B0E0E6E3FEE016D209F003C080E08093C9
:1009E000A500A8E6B0E0EEEBFEE077D1A8E6B0E027
:1009F0001AD1E5EAF0E0A3D1A8E6B0E014D1EEE424
:100A0000FEE06BD1A8E6B0E038D1A8E6B0E077D13F
:100A1000082FA8E0B4E0E0E1F0E091D12CD133D18F
:100A2000B4C0E8ECFEE0EED109F034C0AFE9B0E0CC
:100A3000E2E9FEE0E7D109F003C081E08093A6007F
:100A4000AFE9B0E0E6E3FEE0DDD109F003C080E00D
:100A50008093A600A8E6B0E0ECECFEE03ED1A8E66C
:100A6000B0E0E1D0E6EAF0E06AD1A8E6B0E0DBD0A1
:100A7000EEE4FEE032D1A8E6B0E0FFD0A8E6B0E0B8
:100A80003ED1082FA8E0B4E0E0E1F0E058D1F3D087
:100A9000FAD07BC0E6EDFEE0B5D109F03EC0AFE98B
:100AA000B0E0EAEDFEE0AED109F003C082E0809351
:100AB000A700AFE9B0E0E2E9FEE0A4D109F003C08D
:100AC00081E08093A700AFE9B0E0E6E3FEE09AD1D1
:100AD00009F003C080E08093A700A8E6B0E0E2E759
:100AE000FEE0FBD0A8E6B0E09ED0E7EAF0E027D138
:100AF000A8E6B0E098D0EEE4FEE0EFD0A8E6B0E0E3
:100B0000BCD0A8E6B0E0FBD0082FA8E0B4E0E0E15C
:100B1000F0E015D1B0D0B7D038C0ECEDFEE072D126
:100B200009F033C0AFE9B0E0E2E9FEE06BD109F0D3
:100B300003C081E08093A800AFE9B0E0E6E3FEE007
:100B400061D109F003C080E08093A800A8E6B0E07E
:100B5000E0EEFEE0C2D0A8E6B0E065D0E8EAF0E062
:100B6000EED0A8E6B0E05FD0EEE4FEE0B6D0A8E6B6
:100B7000B0E083D0A8E6B0E0C2D0082FA8E0B4E08F
:100B8000E0E1F0E0DCD077D07ED0AAE9B0E0EAEE98
:100B9000FEE038D109F039C0ACE9B0E0EEE8FEE0A3
:100BA00031D109F009C000917D00003009F003C087
:100BB00081E080937D0029C0EEE9FEE023D109F0B9
:100BC00009C000917E00003009F003C081E08093ED
:100BD0007E001BC0ECEAFEE015D109F009C00091CF
:100BE0007F00003009F003C082E080937F000DC0D9
:100BF000EAEBFEE007D109F008C000918000003068
:100C000009F003C082E08093800059CAF894FFCFB6
:100C10008C9181508C930895ED91FC91E150F040BE
:100C2000FC93EE9308958F938D918823E9F71197A4
:100C30008F910895A8E0B4E01AD08D3039F0EE23FA
:100C4000D9F38D93EA9563FE21D0F6CF63FC04C0FF
:100C50008DE01CD08AE01AD088278C93089581E01B
:100C60005F9B8827089588275F9B089500C05F9B3E
:100C7000FECF8CB10895A8E0B4E08D91882311F0E7
:100C800005D0FBCF08958DE001D08AE05D9BFECFBB
:100C90008CB908953197F1F70895689462F8089532
:100CA000E89462F80895EF93FF93EE27E82BE92B81
:100CB00031F0E0EDF7E03197F1F70197D1F7FF91CF
:100CC000EF91089501911191219130810895992713
:100CD0005A924A92480E591E08950DD00D92002046
:100CE000E1F70895369A3699FECF369A3699FECFB7
:100CF00084B195B10895C89531960020089588274C
:100D00009D91890F9923E1F70895000F111F221F6C
:100D1000331F089500951095209530950F5F1F4F54
:100D20002F4F3F4F0895019110810BC0CBDF0BC0B7
:100D30000191108117FF05C03FEF2FEF04C0008124
:100D400011272227332737FF03C0E4DF8DE28D937D
:100D5000CF92DF92EF92AA24BB24CC24DD24EE2490
:100D600040E2EAE0FF2755E093E38081890F87FDA9
:100D70009F7083FD907F891B81935A95A9F7C5DFEA
:100D8000AA1CBB1CCC1CDD1CEE1C4A9551F7E89438
:100D9000EFE0FF2782910CD0EB30E0F71EF0689473
:100DA0008A2D0AD088278D93EF90DF90CF900895F9
:100DB000982F829501D0892F8F70805D26F0803327
:100DC00009F4089568948D93089588278D93089564
:100DD00081918D938823E1F7089509919191992349
:100DE00051F08A95D9F73197002329F081918D939D
:100DF0000A958823C9F7E9CF8FEF83959D919923B1
:100E0000E1F70895689401C0E894AF93BF938D9182
:100E100016F0919102C06FDF902D891718F011F430
:100E20008823A9F7BF91AF910895E89463F80895D6
:100E3000689463F8089530003030333A693A00001E
:100E40003A303A003030333A693A30313A003A00B9
:100E50003030333A693A30323A003030333A693A16
:100E600030333A313A003030333A693A30343A313B
:100E70003A003030333A6F3A30363A003030333A55
:100E8000733A30313A313A00303033006F0030314C
:100E9000000031003030333A6F3A30313A003032AE
:100EA00000003030333A6F3A30323A0030330000CD
:100EB0003030333A6F3A30333A003034000030305B
:100EC000333A6F3A30343A00303500003030333A3C
:100ED0006F3A30353A0030360000320030370000CB
:0C0EE0003030333A6F3A30373A00690086
:00000001FF
