:1000000012C0189518951895189518951895189563
:100010001895189518951895189518951895189578
:100020001895189518958FE58DBFC8E3E0E24E2E20
:1000300084E08EBFD4E0F4E05F2EA89584B7082E4C
:10004000877F84BF88E1992781BD91BDEEEFF3E002
:10005000A0E6B0E088278D933197E9F783E389B96B
:1000600080E080BD88E18AB966248FEF87BB8D9AD6
:100070008E9A8F9AA298A39886E886B980E487B969
:10008000379A88EE93E0A6E6B0E08D939C9388E8DB
:1000900093E1BDD598D5A4E8B0E08C93009184009D
:1000A000013009F005C093D5A5E8B0E08C9301C0FC
:1000B00006C0009185000A3209F001C0BBC383E08D
:1000C0008093810000918100043010F009F04EC04F
:1000D000A1E8B0E0AD90BB24ACE7B0E0AA0DBB1D39
:1000E0000C91013009F03BC087E68093A100A2E8A3
:1000F000B0E0E1E8F0E0D1D5A2E8B0E02BD6082FDF
:10010000023008F017C083E096D5E2E8F0E0A8815D
:10011000B9810CD6A2E8B0E0E2E9FDE092D5E88131
:10012000F981A2E8B0E033D501D683E0481A80E037
:10013000580A2296A8E6B0E0E4E9FDE082D5E2E8BC
:10014000F0E0A8E6B0E023D5F1D5A8E6B0E01FD5F1
:10015000ECE9FDE076D5A8E6B0E043D548D5A1E8C6
:10016000B0E08C918F5F8C9308F4ACCF00917D0050
:10017000013009F070C007B1007F006007B966D593
:10018000A0E6B0E08D939C93A0E6B0E00D911C91A9
:10019000073E53E0150710F009F001C006C087EED6
:1001A00093E0A0E6B0E08D939C9387E68093A10056
:1001B000A6EBB0E0E0E6F0E064D5A6EBB0E0CAD58F
:1001C000082F023008F017C085E035D5E6EBF0E0E7
:1001D000A881B981ABD5A6EBB0E0E2E9FDE031D56D
:1001E000E881F981A6EBB0E0D2D4A0D585E0481A29
:1001F00080E0580A2296A6EBB0E0ACD5082F033079
:1002000008F017C085E017D5E6EBF0E0A881B981CA
:100210008DD5A6EBB0E0E2E9FDE013D5E881F981E8
:10022000A6EBB0E0B4D482D585E0481A80E0580A45
:100230002296A8E6B0E0E2EAFDE003D5E6EBF0E0C6
:10024000A8E6B0E0A4D472D5A8E6B0E0CAD4CFD472
:1002500080E080937D0000917E00013009F070C045
:1002600007B1007F016007B9F1D4A2E6B0E08D9339
:100270009C93A2E6B0E00D911C91073E53E0150758
:1002800010F009F001C006C087EE93E0A2E6B0E0EE
:100290008D939C9387E68093A100AAEBB0E0E2E601
:1002A000F0E0EFD4AAEBB0E055D5082F023008F00B
:1002B00017C085E0C0D4EAEBF0E0A881B98136D55B
:1002C000AAEBB0E0E2E9FDE0BCD4E881F981AAEB59
:1002D000B0E05DD42BD585E0481A80E0580A22961C
:1002E000AAEBB0E037D5082F033008F017C085E03F
:1002F000A2D4EAEBF0E0A881B98118D5AAEBB0E06E
:10030000E2E9FDE09ED4E881F981AAEBB0E03FD4B8
:100310000DD585E0481A80E0580A2296A8E6B0E09C
:10032000ECEAFDE08ED4EAEBF0E0A8E6B0E02FD4F2
:10033000FDD4A8E6B0E055D45AD480E080937E0086
:100340009A9914C000917F00003009F00CC087E634
:100350008093A100A8E6B0E0E6EBFDE072D4A8E649
:10036000B0E03FD444D48AEF80937F009B9914C0BF
:1003700000918000003009F00CC087E68093A10056
:10038000A8E6B0E0E4ECFDE05CD4A8E6B0E029D457
:100390002ED48AEF8093800083E0809381000091C7
:1003A0008100043010F009F01EC0A1E8B0E0AD906B
:1003B000BB24ACE7B0E0AA0DBB1D0C91003010F0DF
:1003C00009F001C009C0A1E8B0E0AD90BB24ACE7E2
:1003D000B0E0AA0DBB1DD0D3A1E8B0E08C918F5F37
:1003E0008C9308F4DCCF81E08093B5000091B500D8
:1003F000063010F009F025C0A5EBB0E0AD90BB24AD
:10040000A7EAB0E0AA0CBB1CAA0DBB1D0D911C9164
:10041000003050E0150710F009F001C00BC0A5EB4B
:10042000B0E0AD90BB24A7EAB0E0AA0CBB1CAA0DBB
:10043000BB1DA6D3A5EBB0E08C918F5F8C9308F425
:10044000D5CF81E08093B5000091B500053010F064
:1004500009F03AC0A5EBB0E0AD90BB24A1EAB0E052
:10046000AA0DBB1D0C91013081E009F080E08F9353
:10047000A5EBB0E0AD90BB24A7EAB0E0AA0CBB1C92
:10048000AA0DBB1D0D911C91003050E0150781E0B5
:1004900009F080E09F918923882309F40EC08BE93D
:1004A00092E0A5EBB0E0AD90BB24A7EAB0E0AA0CC7
:1004B000BB1CAA0DBB1D8D939C93A5EBB0E08C914A
:1004C0008F5F8C9308F4C0CF0091A700023081E0C9
:1004D00009F080E08F93A3EBB0E00D911C91003008
:1004E00050E0150781E009F080E09F91892388237F
:1004F00009F406C089E893E1A3EBB0E08D939C93E7
:100500000091A700013009F012C081EB94E0A3EB49
:10051000B0E08D939C9380E08093A700A8E6B0E0C4
:10052000E2EDFDE08ED3A8E6B0E05BD360D3A9EAAC
:10053000B0E00D911C910E3451E0150781E009F0F7
:1005400080E08F930091A800003081E009F080E006
:100550009F918923882309F401C0C09AA9EAB0E0D9
:100560000D911C91013050E0150709F001C0C098B1
:10057000ABEAB0E00D911C910E3451E0150781E01B
:1005800009F080E08F930091A800003081E009F02D
:1005900080E09F918923882309F401C0C19AABEAC6
:1005A000B0E00D911C91013050E0150709F001C039
:1005B000C198ADEAB0E00D911C910E3451E01507E1
:1005C00081E009F080E08F930091A800003081E085
:1005D00009F080E09F918923882309F401C0C29A21
:1005E000ADEAB0E00D911C91013050E0150709F023
:1005F00001C0C298AFEAB0E00D911C910E3451E0F9
:10060000150781E009F080E08F930091A800003089
:1006100081E009F080E09F918923882309F401C0DB
:10062000C39AAFEAB0E00D911C91013050E015077C
:1006300009F001C0C398A1EBB0E00D911C910E34FC
:1006400051E0150781E009F080E08F930091A80048
:10065000003081E009F080E09F918923882309F42C
:1006600001C0C49AA1EBB0E00D911C91013050E0A3
:10067000150709F001C0C498A3EBB0E00D911C91DF
:100680000D3454E0150781E009F080E08F9300916C
:10069000A800003081E009F080E09F918923882341
:1006A00009F401C0C59AA3EBB0E00D911C910D3B7C
:1006B00052E0150709F001C0C598A3EBB0E00D9119
:1006C0001C910D3251E0150781E009F080E08F9315
:1006D0000091A800003081E009F080E09F9189231B
:1006E000882309F401C0C59AA3EBB0E00D911C91D9
:1006F000093C50E0150709F001C0C598A3EBB0E034
:100700000D911C91053650E0150781E009F080E05D
:100710008F930091A800003081E009F080E09F9164
:100720008923882309F401C0C59AA3EBB0E00D9199
:100730001C91013050E0150709F001C0C5980091E7
:10074000A100003010F009F001C005C08091A100A7
:1007500081508093A1000091A100043609F001C0EE
:10076000959A0091A100003009F001C09598A6E685
:10077000B0E00D911C91003050E0150714F009F025
:1007800001C003C0A6E6B0E0FBD1A6E6B0E00D9143
:100790001C91003050E0150709F012C087E68093E5
:1007A000A100A8E6B0E0E0EEFDE04BD2A8E6B0E0A4
:1007B00018D21DD280E29EE4A6E6B0E08D939C9311
:1007C000A4E6B0E00D911C91003050E0150710F048
:1007D00009F001C003C0A4E6B0E0D2D1A4E6B0E0C5
:1007E0000D911C91043F51E0150709F00CC00091D8
:1007F000A800013009F001C0969A0091A8000030CD
:1008000009F001C0979AA4E6B0E00D911C91003068
:1008100050E0150709F008C09698979884E398E08F
:10082000A4E6B0E08D939C9381E090E0F0D132CCCF
:10083000F894FFCFABD2A6E8B0E0EFE0B1D1A3D2FD
:10084000E6E8F0E003E0A6E9B0E07CD285E0E6E887
:10085000F0E001E00A93AAE9B0E06DD287E0E6E8B3
:10086000F0E002E00A93ACE9B0E065D28AE0E6E8A5
:10087000F0E001E00A93AFE9B0E05DD2A6E9B0E0B4
:10088000EEEEFDE06DD209F074C1AAE9B0E0E2EF4E
:10089000FDE066D209F02DC187E68093A100ACE9A6
:1008A000B0E0E4EFFDE05CD209F024C0AFE9B0E0D5
:1008B000E8EFFDE055D209F003C081E08093A2008B
:1008C000AFE9B0E0E2E9FDE04BD209F003C080E01F
:1008D0008093A200A8E6B0E0EAEFFDE0B2D1A8E67E
:1008E000B0E055D1E2EAF0E0D8D1A8E6B0E079D1A5
:1008F0007ED1FFC0E6E0FEE033D209F024C0AFE9CC
:10090000B0E0E8EFFDE02CD209F003C081E0809375
:10091000A300AFE9B0E0E2E9FDE022D209F003C0B4
:1009200080E08093A300A8E6B0E0EAE0FEE089D191
:10093000A8E6B0E02CD1E3EAF0E0AFD1A8E6B0E061
:1009400050D155D1D6C0E6E1FEE00AD209F024C06C
:10095000AFE9B0E0E8EFFDE003D209F003C081E0C9
:100960008093A400AFE9B0E0E2E9FDE0F9D109F03D
:1009700003C080E08093A400A8E6B0E0EAE1FEE0D6
:1009800060D1A8E6B0E003D1E4EAF0E086D1A8E6C1
:10099000B0E027D12CD1ADC0E6E2FEE0E1D109F014
:1009A00024C0AFE9B0E0E8EFFDE0DAD109F003C020
:1009B00081E08093A500AFE9B0E0E2E9FDE0D0D1AD
:1009C00009F003C080E08093A500A8E6B0E0EAE269
:1009D000FEE037D1A8E6B0E0DAD0E5EAF0E05DD19C
:1009E000A8E6B0E0FED003D184C0E6E3FEE0B8D1D3
:1009F00009F024C0AFE9B0E0E8EFFDE0B1D109F0C3
:100A000003C081E08093A600AFE9B0E0E2E9FDE039
:100A1000A7D109F003C080E08093A600A8E6B0E06B
:100A2000EAE3FEE00ED1A8E6B0E0B1D0E6EAF0E0FD
:100A300034D1A8E6B0E0D5D0DAD05BC0E6E4FEE081
:100A40008FD109F02EC0AFE9B0E0EAE4FEE088D132
:100A500009F003C082E08093A700AFE9B0E0E8EFBF
:100A6000FDE07ED109F003C081E08093A700AFE9EB
:100A7000B0E0E2E9FDE074D109F003C080E08093CA
:100A8000A700A8E6B0E0ECE4FEE0DBD0A8E6B0E02A
:100A90007ED0E7EAF0E001D1A8E6B0E0A2D0A7D08E
:100AA00028C0E8E5FEE05CD109F023C0AFE9B0E082
:100AB000E8EFFDE055D109F003C081E08093A80084
:100AC000AFE9B0E0E2E9FDE04BD109F003C080E01E
:100AD0008093A800A8E6B0E0ECE5FEE0B2D0A8E67E
:100AE000B0E055D0E8EAF0E0D8D0A8E6B0E079D0A0
:100AF0007ED0AAE9B0E0E8E6FEE032D109F039C0E4
:100B0000ACE9B0E0E4EFFDE02BD109F009C00091C1
:100B10007D00003009F003C081E080937D0029C092
:100B2000E6E0FEE01DD109F009C000917E00003032
:100B300009F003C081E080937E001BC0E6E1FEE087
:100B40000FD109F009C000917F00003009F003C007
:100B500082E080937F000DC0E6E2FEE001D109F063
:100B600008C000918000003009F003C082E080934B
:100B70008000A5CAF894FFCF8C9181508C93089582
:100B8000ED91FC91E150F040FC93EE9308958F932A
:100B90008D918823E9F711978F910895A8E0B4E02B
:100BA0001AD08D3039F0EE23D9F38D93EA9563FE98
:100BB00021D0F6CF63FC04C08DE01CD08AE01AD0AF
:100BC00088278C93089581E05F9B88270895882764
:100BD0005F9B089500C05F9BFECF8CB10895A8E095
:100BE000B4E08D91882311F005D0FBCF08958DE0FE
:100BF00001D08AE05D9BFECF8CB908953197F1F763
:100C00000895689462F80895E89462F80895EF935F
:100C1000FF93EE27E82BE92B31F0E0EDF7E0319779
:100C2000F1F70197D1F7FF91EF910895019111919B
:100C300021913081089599275A924A92480E591E5F
:100C400008950DD00D920020E1F70895369A369957
:100C5000FECF369A3699FECF84B195B10895C895E6
:100C6000319600200895000F111F221F331F089591
:100C700000951095209530950F5F1F4F2F4F3F4FD8
:100C80000895019110810BC0D1DF0BC0019110813B
:100C900017FF05C03FEF2FEF04C000811127222767
:100CA000332737FF03C0E4DF8DE28D93CF92DF92CD
:100CB000EF92AA24BB24CC24DD24EE2440E2EAE017
:100CC000FF2755E093E38081890F87FD9F7083FDA7
:100CD000907F891B81935A95A9F7C5DFAA1CBB1C7D
:100CE000CC1CDD1CEE1C4A9551F7E894EFE0FF2781
:100CF00082910CD0EB30E0F71EF068948A2D0AD078
:100D000088278D93EF90DF90CF900895982F82954C
:100D100001D0892F8F70805D26F0803309F408950B
:100D200068948D93089588278D93089581918D936C
:100D30008823E1F7089509919191992351F08A95BB
:100D4000D9F73197002329F081918D930A95882353
:100D5000C9F7E9CF8FEF83959D919923E1F7089526
:100D6000689401C0E894AF93BF938D9116F0919170
:100D700002C075DF902D891718F011F48823A9F7A8
:100D8000BF91AF910895E89463F80895689463F86B
:100D9000089530003030333A693A00003A3030304C
:100DA00000003030333A693A30313A003030333A6B
:100DB000693A30323A003030333A693A30333A30B7
:100DC000303100003030333A693A30343A30303123
:100DD00000003030333A6F3A30363A30303000006D
:100DE0003030333A733A30313A30303100003030FD
:100DF00033006F003031000031003030333A6F3A49
:100E000030313A303000303200003030333A6F3A0F
:100E100030323A303000303300003030333A6F3AFD
:100E200030333A303000303400003030333A6F3AEB
:100E300030343A303000303500003030333A6F3AD9
:100E400030353A3030003036000032003030333A3E
:100E50006F3A30363A303000303700003030333AB5
:0A0E60006F3A30373A303000690075
:00000001FF
