:1000000012C0189518951895189518951895189563
:100010001895189518951895189518951895189578
:100020001895189518958FE58DBFC0E4E0E44E2E25
:1000300084E08EBFD4E0F4E05F2EA89584B7082E4C
:10004000877F84BF88E1992781BD91BDEEEFF3E002
:10005000A0E6B0E088278D933197E9F78CE089B965
:1000600080E080BD88E18AB966248FEF87BB8D9AD6
:100070008E9A8F9AA298A39874B7777F74BF8BE1FA
:1000800081BD83E081BDB99A81EC8FBD81E08EBDD9
:1000900086E886B980E487B9379AE0E0F0E0A0E12D
:1000A000B0E0FDD6003281E008F480E08F93E0E01C
:1000B000F0E0A0E1B0E0F3D60D3781E010F009F0F8
:1000C00080E09F918923882309F406C0E0E0F0E0F6
:1000D000A5E9B0E0E4D603C080E280939500A6E9EC
:1000E000B0E0E5E9F0E07ED681B5886081BD709131
:1000F000840071607093840000919500003209F0D3
:1001000005C0709184007260709384000FD6ACE6D5
:10011000B0E08C9300916C00013009F01CC00AD64D
:10012000ADE6B0E08C934091950000916D0004170E
:1001300081E009F080E08F9300916D000E3781E03F
:1001400009F080E09F91892B882309F404C08BEC8F
:1001500080937E0039C000917E00003010F009F0DD
:1001600001C005C080917E00815080937E00009187
:100170007E00083C09F001C0959A00917E00003095
:1001800009F001C0959800918400003010F009F04A
:1001900001C002C0969A01C09698A2E3B0E08C918B
:1001A00086FB80F9809580FBA2E3B0E08C9187F913
:1001B0008C93A895EF93FF93E0E6F0E0D8D5FF91FC
:1001C000EF91A4CFF894FFCF90D6AEE6B0E0E9E08F
:1001D0009AD588D682E0EEE6F0E001E00A93AAE73D
:1001E000B0E037D684E0EEE6F0E001E00A93ACE759
:1001F000B0E02FD686E0EEE6F0E004E00A93AFE749
:10020000B0E027D6AFE7B0E005D6ACE8B0E00D939C
:100210001C93AAE7B0E0E0EFFEE051D609F09DC1E3
:10022000ACE7B0E0E2EFFEE04AD609F0FDC0AFE790
:10023000B0E08C91803009F458C0ACE8B0E08D910A
:100240009C91A8E7B0E08D939C93A8E7B0E00D9156
:100250001C91003150E0150708F407C0C59AA8E7C3
:10026000B0E07C917F7E7C9301C0C598A8E7B0E0A8
:100270000D911C91083050E0150708F407C0C49A8E
:10028000A8E7B0E07C91777F7C9301C0C498A8E791
:10029000B0E00D911C91043050E0150708F407C040
:1002A000C39AA8E7B0E07C917B7F7C9301C0C398A0
:1002B000A8E7B0E00D911C91023050E0150708F45A
:1002C00007C0C29AA8E7B0E07C917D7F7C9301C013
:1002D000C298A8E7B0E00D911C91013050E01507DD
:1002E00008F402C0C09A01C0C09880E090E0AEE877
:1002F000B0E08D939C93C09B05C0AEE8B0E07C91CC
:1003000071607C93C29B05C0AEE8B0E07C917260E6
:100310007C93C39B05C0AEE8B0E07C9174607C9395
:10032000C49B05C0AEE8B0E07C9178607C93C59B2F
:1003300005C0AEE8B0E07C9170617C93A0E9B0E0CC
:10034000EEE8F0E051D5A0E9B0E0B3D5082F0230D7
:1003500008F017C086E023D5E0E9F0E0A881B98174
:1003600073D5A0E9B0E0E4EFFEE01FD5E881F981A4
:10037000A0E9B0E0BFD468D586E0481A80E0580A0A
:100380002296A0E9B0E095D5082F033008F017C0F9
:1003900086E005D5E0E9F0E0A881B98155D5A0E96E
:1003A000B0E0E8EFFEE001D5E881F981A0E9B0E036
:1003B000A1D44AD586E0481A80E0580A2296A0E9DE
:1003C000B0E077D5082F043008F017C086E0E7D4F6
:1003D000E0E9F0E0A881B98137D5A0E9B0E0E2EF2B
:1003E000FEE0E3D4E881F981A0E9B0E083D42CD524
:1003F00086E0481A80E0580A2296E6E9F0E0A0E696
:10040000B0E022D5A0E6B0E075D4ECEFFEE0CDD4AC
:10041000E0E9F0E0A0E6B0E06DD416D5A0E6B0E0EB
:1004200093D498D473CE98C0E2E0FFE048D509F0A9
:1004300093C0AFE7B0E08C91803009F419C0ACE80C
:10044000B0E00D911C910F3F50E0150710F009F03E
:1004500001C006C08FEF90E0ACE8B0E08D939C93B4
:10046000ACE8B0E08D919C9190934B0080934A0052
:10047000A5E8B0E0EAE4F0E0B7D4A5E8B0E019D52B
:10048000082F023008F017C086E089D4E5E8F0E0D4
:10049000A881B981D9D4A5E8B0E0E4EFFEE085D425
:1004A000E881F981A5E8B0E025D4CED486E0481AE9
:1004B00080E0580A2296A5E8B0E0FBD4082F03306C
:1004C00008F017C086E06BD4E5E8F0E0A881B981B8
:1004D000BBD4A5E8B0E0E8EFFEE067D4E881F9819D
:1004E000A5E8B0E007D4B0D486E0481A80E0580A06
:1004F0002296A5E8B0E0DDD4082F043008F017C03C
:1005000086E04DD4E5E8F0E0A881B9819DD4A5E866
:10051000B0E0E2EFFEE049D4E881F981A5E8B0E07F
:10052000E9D392D486E0481A80E0580A2296E6E998
:10053000F0E0A0E6B0E088D4A0E6B0E0DBD3E4E0F1
:10054000FFE033D4E5E8F0E0A0E6B0E0D3D37CD41C
:10055000A0E6B0E0F9D3FED3D9CDAAE7B0E0EAE057
:10056000FFE0ADD409F097C1ACE7B0E0E2EFFEE008
:10057000A6D409F08AC080E090E0AEE8B0E08D93A8
:100580009C939A9905C0AEE8B0E07C9171607C9331
:100590009B9905C0AEE8B0E07C9172607C93A0E9C5
:1005A000B0E0EEE8F0E020D4A0E9B0E082D4082F7B
:1005B000023008F017C086E0F2D3E0E9F0E0A8814D
:1005C000B98142D4A0E9B0E0E4EFFEE0EED3E881E7
:1005D000F981A0E9B0E08ED337D486E0481A80E0F4
:1005E000580A2296A0E9B0E064D4082F033008F03E
:1005F00017C086E0D4D3E0E9F0E0A881B98124D423
:10060000A0E9B0E0E8EFFEE0D0D3E881F981A0E90D
:10061000B0E070D319D486E0481A80E0580A2296D8
:10062000A0E9B0E046D4082F043008F017C086E0F7
:10063000B6D3E0E9F0E0A881B98106D4A0E9B0E042
:10064000E2EFFEE0B2D3E881F981A0E9B0E052D355
:10065000FBD386E0481A80E0580A2296E6E9F0E0EB
:10066000A0E6B0E0F1D3A0E6B0E044D3ECE0FFE0D8
:100670009CD3E0E9F0E0A0E6B0E03CD3E5D3A0E60F
:10068000B0E062D367D342CD05C1E2E0FFE017D40A
:1006900009F07EC007B1007F006007B98BD3AAE8DC
:1006A000B0E08D939C93A5E8B0E0EAE8F0E09CD33D
:1006B000A5E8B0E0FED3082F023008F017C086E0AE
:1006C0006ED3E5E8F0E0A881B981BED3A5E8B0E03B
:1006D000E4EFFEE06AD3E881F981A5E8B0E00AD34F
:1006E000B3D386E0481A80E0580A2296A5E8B0E025
:1006F000E0D3082F033008F017C086E050D3E5E8B8
:10070000F0E0A881B981A0D3A5E8B0E0E8EFFEE071
:100710004CD3E881F981A5E8B0E0ECD295D386E02E
:10072000481A80E0580A2296A5E8B0E0C2D3082F04
:10073000043008F017C086E032D3E5E8F0E0A88185
:10074000B98182D3A5E8B0E0E2EFFEE02ED3E881E4
:10075000F981A5E8B0E0CED277D386E0481A80E0F0
:10076000580A2296E6E9F0E0A0E6B0E06DD3A0E6F4
:10077000B0E0C0D2E2E1FFE018D3E5E8F0E0A0E6A7
:10078000B0E0B8D261D3A0E6B0E0DED2E3D282C05E
:10079000E8E1FFE094D309F07DC007B1007F01607C
:1007A00007B908D3AAE8B0E08D939C93A5E8B0E020
:1007B000EAE8F0E019D3A5E8B0E07BD3082F0230D7
:1007C00008F017C086E0EBD2E5E8F0E0A881B98137
:1007D0003BD3A5E8B0E0E4EFFEE0E7D2E881F981A1
:1007E000A5E8B0E087D230D386E0481A80E0580A06
:1007F0002296A5E8B0E05DD3082F033008F017C0BB
:1008000086E0CDD2E5E8F0E0A881B9811DD3A5E866
:10081000B0E0E8EFFEE0C9D2E881F981A5E8B0E0F8
:1008200069D212D386E0481A80E0580A2296A5E8D9
:10083000B0E03FD3082F043008F017C086E0AFD2F5
:10084000E5E8F0E0A881B981FFD2A5E8B0E0E2EFE9
:10085000FEE0ABD2E881F981A5E8B0E04BD2F4D25A
:1008600086E0481A80E0580A2296E6E9F0E0A0E621
:10087000B0E0EAD2A0E6B0E03DD2EAE1FFE095D2F6
:10088000E5E8F0E0A0E6B0E035D2DED2A0E6B0E0E8
:100890005BD260D23BCCAAE7B0E0E0E2FFE00FD34E
:1008A00009F0ACC1ACE7B0E0E2EFFEE008D309F03C
:1008B000B8C0AFE7B0E08C91803009F43DC0ACE83F
:1008C000B0E08D919C91A8E7B0E08D939C93A8E750
:1008D000B0E00D911C91043050E0150708F40BC0F6
:1008E000A4E8B0E08C9194E089278C93A8E7B0E06D
:1008F0007C917B7F7C93A8E7B0E00D911C91023046
:1009000050E0150708F40AC0709184007D7F709351
:100910008400A8E7B0E07C917D7F7C93A8E7B0E0FD
:100920000D911C91013050E0150708F405C070913D
:1009300084007E7F70938400A5E8B0E0E4E8F0E0F6
:1009400051D2A5E8B0E0B5D2082F023008F017C0A8
:1009500086E025D2E5E8F0E0A881B98175D2A5E866
:10096000B0E0E4EFFEE021D2E881F981A5E8B0E053
:10097000C1D16AD286E0481A80E0580A2296A5E8DA
:10098000B0E097D2082F033008F017C086E007D2F6
:10099000E5E8F0E0A881B98157D2A5E8B0E0E8EF3A
:1009A000FEE003D2E881F981A5E8B0E0A3D14CD202
:1009B00086E0481A80E0580A2296A5E8B0E079D28D
:1009C000082F043008F017C086E0E9D1E5E8F0E030
:1009D000A881B98139D2A5E8B0E0E2EFFEE0E5D127
:1009E000E881F981A5E8B0E085D12ED286E0481AE9
:1009F00080E0580A2296E6E9F0E0A0E6B0E024D2D2
:100A0000A0E6B0E077D1E2E2FFE0CFD1E5E8F0E0A8
:100A1000A0E6B0E06FD118D2A0E6B0E095D19AD1AF
:100A2000EDC0E2E0FFE04BD209F010C0E6E9F0E0F3
:100A3000A0E6B0E009D2A0E6B0E05CD1E8E2FFE0D9
:100A4000B4D1A0E6B0E080D185D1D8C0E8E1FFE024
:100A500036D209F010C0E6E9F0E0A0E6B0E0F4D14B
:100A6000A0E6B0E047D1E2E3FFE09FD1A0E6B0E02E
:100A70006BD170D1C3C0ECE3FFE021D209F010C00C
:100A8000E6E9F0E0A0E6B0E0DFD1A0E6B0E032D1E8
:100A9000EEE3FFE08AD1A0E6B0E056D15BD1AEC074
:100AA000E8E4FFE00CD209F010C0E6E9F0E0A0E6CF
:100AB000B0E0CAD1A0E6B0E01DD1EAE4FFE075D114
:100AC000A0E6B0E041D146D199C0E4E5FFE0F7D11E
:100AD00009F010C0E6E9F0E0A0E6B0E0B5D1A0E68C
:100AE000B0E008D1E6E5FFE060D1A0E6B0E02CD1AF
:100AF00031D184C0E0E6FFE0E2D109F010C0E6E9C0
:100B0000F0E0A0E6B0E0A0D1A0E6B0E0F3D0E2E6ED
:100B1000FFE04BD1A0E6B0E017D11CD16FC0ECE6EE
:100B2000FFE0CDD109F010C0E6E9F0E0A0E6B0E0CA
:100B30008BD1A0E6B0E0DED0EEE6FFE036D1A0E655
:100B4000B0E002D107D15AC0E8E7FFE0B8D109F020
:100B500010C0E6E9F0E0A0E6B0E076D1A0E6B0E0B3
:100B6000C9D0EAE7FFE021D1A0E6B0E0EDD0F2D0B5
:100B700045C0E4E8FFE0A3D109F010C0E6E9F0E0E9
:100B8000A0E6B0E061D1A0E6B0E0B4D0E6E8FFE0D6
:100B90000CD1A0E6B0E0D8D0DDD030C0E0E9FFE075
:100BA0008ED109F010C0E6E9F0E0A0E6B0E04CD14B
:100BB000A0E6B0E09FD0E2E9FFE0F7D0A0E6B0E029
:100BC000C3D0C8D01BC0E6E9F0E0A0E6B0E03CD15D
:100BD000A0E6B0E08FD0ECE9FFE0E7D0ECE7F0E092
:100BE000A0E6B0E087D030D1A0E6B0E083D0E0EA64
:100BF000FFE0DBD0A0E6B0E0A7D0ACD0AAE7B0E041
:100C0000E6EAFFE05CD109F072C0ACE7B0E0E2EFE9
:100C1000FEE055D109F013C0E6E9F0E0A0E6B0E04F
:100C200013D1A0E6B0E066D0E8EAFFE0BED0A0E6CF
:100C3000B0E08AD08FD0E1E0F0E093D058C0E2E09D
:100C4000FFE03DD109F053C0ACE8B0E00D911C913C
:100C5000003250E0150781E008F480E08F93ACE8A3
:100C6000B0E00D911C910D3750E0150781E010F0B8
:100C700009F080E09F918923882309F40BC0E0E00C
:100C8000F0E0ACE8B0E07BE7F9D0E0E0F0E0A5E927
:100C9000B0E005D1E6E9F0E0A0E6B0E0D5D0A0E60E
:100CA000B0E028D0E2EBFFE080D0A0E6B0E022D0B8
:100CB000E5E9F0E097D0A0E6B0E046D04BD081E087
:100CC0006ED0A881B981E5E9F0E08CD0E881F981A6
:100CD000A6E9B0E0F6D00FB681E0481A80E0580AE5
:100CE00022960FBE09F403C0E1E0F0E03AD00ECA4C
:100CF000F894FFCF8F938D918823E9F711978F9107
:100D00000895A8E2B4E01AD08D3039F0EE23D9F37B
:100D10008D93EA9563FE21D0F6CF63FC04C08DE08D
:100D20001CD08AE01AD088278C93089581E05F9BBD
:100D30008827089588275F9B089500C05F9BFECF9A
:100D40008CB10895A8E2B4E08D91882311F005D00C
:100D5000FBCF08958DE001D08AE05D9BFECF8CB97A
:100D6000089588EE93E00CD03197D9F70895319724
:100D7000F1F70895689462F80895E89462F8089588
:100D8000EF93FF93EE27E82BE92B31F0E0EDF7E04E
:100D90003197F1F70197D1F7FF91EF9108959927D6
:100DA0005A924A92480E591E08950DD00D92002075
:100DB000E1F70895369A3699FECF369A3699FECFE6
:100DC00084B195B10895C895319600200895813673
:100DD00018F08B3708F48F7D0895000F111F221F24
:100DE000331F089541E003C042E001C044E0E40F36
:100DF0008827F81F8291982F829505D0892F03D0DC
:100E00004A95C1F71EC08F708A3008F0895F805DF7
:100E10008D93089500271127222733278D9188234A
:100E200079F0DBDFDADFD9DFD8DFD1DF815408F4F6
:100E3000895F865F080F8827181F281F381FEECF8D
:100E4000089588278D93089581918D938823E1F7E4
:100E5000089509919191992351F08A95D9F7319785
:100E6000002329F081918D930A958823C9F7E9CF52
:100E7000E199FECFEEBBFFBB3196089591E001C032
:100E800092E07B3751F47FB7F894F2DF8D918DBB00
:100E9000E29AE19A9A95C9F77FBF7727089591E082
:100EA00001C092E0E5DFE09A8DB38D939A95D1F77A
:100EB00008958FEF83959D919923E1F708956894A4
:100EC00001C0E894AF93BF938D9116F0919102C049
:100ED0007ADF902D891718F011F48823A9F7BF91B4
:100EE000AF910895E89463F80895689463F80895BD
:100EF0006F00300030303000303000002C6F2C306C
:100F00002C0031002C6F2C312C0069002C692C3006
:100F10002C002C692C312C0032002C692C322C0036
:100F200073002C732C302C002C732C312C3030356A
:100F300034002C732C322C303036340033002C73B8
:100F40002C332C303044330034002C732C342C30B0
:100F50003043380035002C732C352C3030303200C3
:100F600036002C732C362C303030350037002C7383
:100F70002C372C303030320038002C732C382C3089
:100F80003030310039002C732C392C303030410096
:100F900041002C732C412C30303038002C732C0045
:100FA0002C303030300021002C212C302C303030CF
:0A0FB00031002C212C312C303000D0
:00000001FF
