:1000000012C0189518951895189518951895189563
:100010001895189518951895189518951895189578
:100020001895189518958FE58DBFC8E3E0E24E2E20
:1000300084E08EBFD4E0F4E05F2EA89584B7082E4C
:10004000877F84BF88E1992781BD91BDEEEFF3E002
:10005000A0E6B0E088278D933197E9F78CE089B965
:1000600080E080BD88E18AB966248FEF87BB8D9AD6
:100070008E9A8F9AA298A39874B7777F74BF8BE1FA
:1000800081BD83E081BDB99A81EC8FBD81E08EBDD9
:1000900086E886B980E487B9379AE0E0F0E0A0E12D
:1000A000B0E09AD6003281E008F480E08F93E0E07F
:1000B000F0E0A0E1B0E090D60D3781E010F009F05B
:1000C00080E09F918923882309F406C0E0E0F0E0F6
:1000D000A5E9B0E081D603C080E280939500A6E94F
:1000E000B0E0E5E9F0E01BD681B5886081BD709194
:1000F000840071607093840000919500003209F0D3
:1001000005C070918400726070938400ACD5ACE639
:10011000B0E08C9300916C00013009F01CC0A7D5B1
:10012000ADE6B0E08C934091950000916D0004170E
:1001300081E009F080E08F9300916D000E3781E03F
:1001400009F080E09F91892B882309F404C08BEC8F
:1001500080937E0039C000917E00003010F009F0DD
:1001600001C005C080917E00815080937E00009187
:100170007E00083C09F001C0959A00917E00003095
:1001800009F001C0959800918400003010F009F04A
:1001900001C002C0969A01C09698A2E3B0E08C918B
:1001A00086FB80F9809580FBA2E3B0E08C9187F913
:1001B0008C93A895EF93FF93E0E6F0E075D5FF915F
:1001C000EF91A4CFF894FFCF2DD6AEE6B0E0E9E0F2
:1001D00037D525D682E0EEE6F0E001E00A93AAE703
:1001E000B0E0D4D584E0EEE6F0E001E00A93ACE7BD
:1001F000B0E0CCD586E0EEE6F0E004E00A93AFE7AD
:10020000B0E0C4D5AFE7B0E0A2D5ACE8B0E00D9364
:100210001C93AAE7B0E0EAE2FEE0EED509F09DC14A
:10022000ACE7B0E0ECE2FEE0E7D509F0FDC0AFE7F7
:10023000B0E08C91803009F458C0ACE8B0E08D910A
:100240009C91A8E7B0E08D939C93A8E7B0E00D9156
:100250001C91003150E0150708F407C0C59AA8E7C3
:10026000B0E07C917F7E7C9301C0C598A8E7B0E0A8
:100270000D911C91083050E0150708F407C0C49A8E
:10028000A8E7B0E07C91777F7C9301C0C498A8E791
:10029000B0E00D911C91043050E0150708F407C040
:1002A000C39AA8E7B0E07C917B7F7C9301C0C398A0
:1002B000A8E7B0E00D911C91023050E0150708F45A
:1002C00007C0C29AA8E7B0E07C917D7F7C9301C013
:1002D000C298A8E7B0E00D911C91013050E01507DD
:1002E00008F402C0C09A01C0C09880E090E0AEE877
:1002F000B0E08D939C93C09B05C0AEE8B0E07C91CC
:1003000071607C93C29B05C0AEE8B0E07C917260E6
:100310007C93C39B05C0AEE8B0E07C9174607C9395
:10032000C49B05C0AEE8B0E07C9178607C93C59B2F
:1003300005C0AEE8B0E07C9170617C93A0E9B0E0CC
:10034000EEE8F0E0EED4A0E9B0E050D5082F02309E
:1003500008F017C086E0C0D4E0E9F0E0A881B981D8
:1003600010D5A0E9B0E0EEE2FEE0BCD4E881F9816E
:10037000A0E9B0E05CD405D586E0481A80E0580AD0
:100380002296A0E9B0E032D5082F033008F017C05C
:1003900086E0A2D4E0E9F0E0A881B981F2D4A0E936
:1003A000B0E0E2E3FEE09ED4E881F981A0E9B0E0AC
:1003B0003ED4E7D486E0481A80E0580A2296A0E9A5
:1003C000B0E014D5082F043008F017C086E084D4BC
:1003D000E0E9F0E0A881B981D4D4A0E9B0E0ECE292
:1003E000FEE080D4E881F981A0E9B0E020D4C9D44E
:1003F00086E0481A80E0580A2296E6E9F0E0A0E696
:10040000B0E0BFD4A0E6B0E012D4E6E3FEE06AD4E8
:10041000E0E9F0E0A0E6B0E00AD4B3D4A0E6B0E0B2
:1004200030D435D473CE98C0ECE3FEE0E5D409F0C7
:1004300093C0AFE7B0E08C91803009F419C0ACE80C
:10044000B0E00D911C910F3F50E0150710F009F03E
:1004500001C006C08FEF90E0ACE8B0E08D939C93B4
:10046000ACE8B0E08D919C9190934B0080934A0052
:10047000A5E8B0E0EAE4F0E054D4A5E8B0E0B6D4F2
:10048000082F023008F017C086E026D4E5E8F0E037
:10049000A881B98176D4A5E8B0E0EEE2FEE022D4EE
:1004A000E881F981A5E8B0E0C2D36BD486E0481AB0
:1004B00080E0580A2296A5E8B0E098D4082F0330CF
:1004C00008F017C086E008D4E5E8F0E0A881B9811B
:1004D00058D4A5E8B0E0E2E3FEE004D4E881F98175
:1004E000A5E8B0E0A4D34DD486E0481A80E0580ACD
:1004F0002296A5E8B0E07AD4082F043008F017C09F
:1005000086E0EAD3E5E8F0E0A881B9813AD4A5E82D
:10051000B0E0ECE2FEE0E6D3E881F981A5E8B0E0E6
:1005200086D32FD486E0481A80E0580A2296E6E95E
:10053000F0E0A0E6B0E025D4A0E6B0E078D3EEE3AA
:10054000FEE0D0D3E5E8F0E0A0E6B0E070D319D447
:10055000A0E6B0E096D39BD3D9CDAAE7B0E0E4E41F
:10056000FEE04AD409F097C1ACE7B0E0ECE2FEE06F
:1005700043D409F08AC080E090E0AEE8B0E08D930B
:100580009C939A9905C0AEE8B0E07C9171607C9331
:100590009B9905C0AEE8B0E07C9172607C93A0E9C5
:1005A000B0E0EEE8F0E0BDD3A0E9B0E01FD4082F42
:1005B000023008F017C086E08FD3E0E9F0E0A881B0
:1005C000B981DFD3A0E9B0E0EEE2FEE08BD3E881B1
:1005D000F981A0E9B0E02BD3D4D386E0481A80E0BB
:1005E000580A2296A0E9B0E001D4082F033008F0A1
:1005F00017C086E071D3E0E9F0E0A881B981C1D3EA
:10060000A0E9B0E0E2E3FEE06DD3E881F981A0E982
:10061000B0E00DD3B6D386E0481A80E0580A22969F
:10062000A0E9B0E0E3D3082F043008F017C086E05B
:1006300053D3E0E9F0E0A881B981A3D3A0E9B0E009
:10064000ECE2FEE04FD3E881F981A0E9B0E0EFD21F
:1006500098D386E0481A80E0580A2296E6E9F0E04E
:10066000A0E6B0E08ED3A0E6B0E0E1D2E6E4FEE0A2
:1006700039D3E0E9F0E0A0E6B0E0D9D282D3A0E639
:10068000B0E0FFD204D342CD05C1ECE3FEE0B4D329
:1006900009F07EC007B1007F006007B928D3AAE83F
:1006A000B0E08D939C93A5E8B0E0EAE8F0E039D3A0
:1006B000A5E8B0E09BD3082F023008F017C086E011
:1006C0000BD3E5E8F0E0A881B9815BD3A5E8B0E001
:1006D000EEE2FEE007D3E881F981A5E8B0E0A7D219
:1006E00050D386E0481A80E0580A2296A5E8B0E088
:1006F0007DD3082F033008F017C086E0EDD2E5E87F
:10070000F0E0A881B9813DD3A5E8B0E0E2E3FEE0E6
:10071000E9D2E881F981A5E8B0E089D232D386E058
:10072000481A80E0580A2296A5E8B0E05FD3082F67
:10073000043008F017C086E0CFD2E5E8F0E0A881E9
:10074000B9811FD3A5E8B0E0ECE2FEE0CBD2E881AE
:10075000F981A5E8B0E06BD214D386E0481A80E0B6
:10076000580A2296E6E9F0E0A0E6B0E00AD3A0E657
:10077000B0E05DD2ECE4FEE0B5D2E5E8F0E0A0E662
:10078000B0E055D2FED2A0E6B0E07BD280D282C0EB
:10079000E2E5FEE031D309F07DC007B1007F0160E2
:1007A00007B9A5D2AAE8B0E08D939C93A5E8B0E084
:1007B000EAE8F0E0B6D2A5E8B0E018D3082F02309E
:1007C00008F017C086E088D2E5E8F0E0A881B9819A
:1007D000D8D2A5E8B0E0EEE2FEE084D2E881F9816B
:1007E000A5E8B0E024D2CDD286E0481A80E0580ACD
:1007F0002296A5E8B0E0FAD2082F033008F017C01F
:1008000086E06AD2E5E8F0E0A881B981BAD2A5E82D
:10081000B0E0E2E3FEE066D2E881F981A5E8B0E06D
:1008200006D2AFD286E0481A80E0580A2296A5E8A0
:10083000B0E0DCD2082F043008F017C086E04CD2BC
:10084000E5E8F0E0A881B9819CD2A5E8B0E0ECE24F
:10085000FEE048D2E881F981A5E8B0E0E8D191D284
:1008600086E0481A80E0580A2296E6E9F0E0A0E621
:10087000B0E087D2A0E6B0E0DAD1E4E5FEE032D223
:10088000E5E8F0E0A0E6B0E0D2D17BD2A0E6B0E0AF
:10089000F8D1FDD13BCCAAE7B0E0EAE5FEE0ACD26E
:1008A00009F0C2C1ACE7B0E0ECE2FEE0A5D209F08D
:1008B000B8C0AFE7B0E08C91803009F43DC0ACE83F
:1008C000B0E08D919C91A8E7B0E08D939C93A8E750
:1008D000B0E00D911C91043050E0150708F40BC0F6
:1008E000A4E8B0E08C9194E089278C93A8E7B0E06D
:1008F0007C917B7F7C93A8E7B0E00D911C91023046
:1009000050E0150708F40AC0709184007D7F709351
:100910008400A8E7B0E07C917D7F7C93A8E7B0E0FD
:100920000D911C91013050E0150708F405C070913D
:1009300084007E7F70938400A5E8B0E0E4E8F0E0F6
:10094000EED1A5E8B0E052D2082F023008F017C06F
:1009500086E0C2D1E5E8F0E0A881B98112D2A5E82D
:10096000B0E0EEE2FEE0BED1E881F981A5E8B0E0BA
:100970005ED107D286E0481A80E0580A2296A5E8A0
:10098000B0E034D2082F033008F017C086E0A4D1BD
:10099000E5E8F0E0A881B981F4D1A5E8B0E0E2E3B0
:1009A000FEE0A0D1E881F981A5E8B0E040D1E9D12D
:1009B00086E0481A80E0580A2296A5E8B0E016D2F0
:1009C000082F043008F017C086E086D1E5E8F0E093
:1009D000A881B981D6D1A5E8B0E0ECE2FEE082D1F1
:1009E000E881F981A5E8B0E022D1CBD186E0481AB0
:1009F00080E0580A2296E6E9F0E0A0E6B0E0C1D136
:100A0000A0E6B0E014D1ECE5FEE06CD1E5E8F0E062
:100A1000A0E6B0E00CD1B5D1A0E6B0E032D137D13C
:100A200003C1ECE3FEE0E8D109F010C0E6E9F0E034
:100A3000A0E6B0E0A6D1A0E6B0E0F9D0E2E6FEE0A4
:100A400051D1A0E6B0E01DD122D1EEC0E2E5FEE03A
:100A5000D3D109F010C0E6E9F0E0A0E6B0E091D112
:100A6000A0E6B0E0E4D0EAE6FEE03CD1A0E6B0E0EB
:100A700008D10DD1D9C0E2E7FEE0BED109F010C027
:100A8000E6E9F0E0A0E6B0E07CD1A0E6B0E0CFD0AF
:100A9000E4E7FEE027D1A0E6B0E0F3D0F8D0C4C090
:100AA000EEE7FEE0A9D109F010C0E6E9F0E0A0E62B
:100AB000B0E067D1A0E6B0E0BAD0E0E8FEE012D145
:100AC000A0E6B0E0DED0E3D0AFC0E8E8FEE094D12D
:100AD00009F010C0E6E9F0E0A0E6B0E052D1A0E6EF
:100AE000B0E0A5D0EAE8FEE0FDD0A0E6B0E0C9D0D5
:100AF000CED09AC0E2E9FEE07FD109F010C0E6E96D
:100B0000F0E0A0E6B0E03DD1A0E6B0E090D0E4E9AE
:100B1000FEE0E8D0A0E6B0E0B4D0B9D085C0ECE902
:100B2000FEE06AD109F010C0E6E9F0E0A0E6B0E02E
:100B300028D1A0E6B0E07BD0EEE9FEE0D3D0A0E67D
:100B4000B0E09FD0A4D070C0E6EAFEE055D109F035
:100B500013C0E6E9F0E0A0E6B0E013D1A0E6B0E013
:100B600066D0E8EAFEE0BED0A0E6B0E08AD08FD042
:100B7000E1E0F0E093D058C0E2EBFEE03DD109F0B7
:100B800053C0ACE8B0E00D911C91003250E0150765
:100B900081E008F480E08F93ACE8B0E00D911C9107
:100BA0000D3750E0150781E010F009F080E09F91CB
:100BB0008923882309F40BC0E0E0F0E0ACE8B0E062
:100BC0007BE7F9D0E0E0F0E0A5E9B0E005D1E6E9A7
:100BD000F0E0A0E6B0E0D5D0A0E6B0E028D0E4EBAD
:100BE000FEE080D0A0E6B0E022D0E5E9F0E097D0CA
:100BF000A0E6B0E046D04BD081E06ED0A881B981AC
:100C0000E5E9F0E08CD0E881F981A6E9B0E0F6D022
:100C10000FB681E0481A80E0580A22960FBE09F408
:100C200003C0E1E0F0E03AD071CAF894FFCF8F93AF
:100C30008D918823E9F711978F910895A8E0B4E08A
:100C40001AD08D3039F0EE23D9F38D93EA9563FEF7
:100C500021D0F6CF63FC04C08DE01CD08AE01AD00E
:100C600088278C93089581E05F9B882708958827C3
:100C70005F9B089500C05F9BFECF8CB10895A8E0F4
:100C8000B4E08D91882311F005D0FBCF08958DE05D
:100C900001D08AE05D9BFECF8CB9089588EE93E089
:100CA0000CD03197D9F708953197F1F708956894EA
:100CB00062F80895E89462F80895EF93FF93EE27A1
:100CC000E82BE92B31F0E0EDF7E03197F1F70197F0
:100CD000D1F7FF91EF91089599275A924A92480EC1
:100CE000591E08950DD00D920020E1F70895369A0F
:100CF0003699FECF369A3699FECF84B195B10895D4
:100D0000C895319600200895813618F08B3708F485
:100D10008F7D0895000F111F221F331F089541E09A
:100D200003C042E001C044E0E40F8827F81F82912D
:100D3000982F829505D0892F03D04A95C1F71EC000
:100D40008F708A3008F0895F805D8D930895002749
:100D50001127222733278D91882379F0DBDFDADF13
:100D6000D9DFD8DFD1DF815408F4895F865F080FAF
:100D70008827181F281F381FEECF089588278D93C6
:100D8000089581918D938823E1F7089509919191B8
:100D9000992351F08A95D9F73197002329F0819151
:100DA0008D930A958823C9F7E9CFE199FECFEEBB71
:100DB000FFBB3196089591E001C092E07B3751F47A
:100DC0007FB7F894F2DF8D918DBBE29AE19A9A9504
:100DD000C9F77FBF7727089591E001C092E0E5DF72
:100DE000E09A8DB38D939A95D1F708958FEF8395FF
:100DF0009D919923E1F70895689401C0E894AF9319
:100E0000BF938D9116F0919102C07ADF902D8917D2
:100E100018F011F48823A9F7BF91AF910895E894D1
:100E200063F80895689463F808956F0030003030D7
:100E30003000303000002C6F2C302C0031002C6F33
:100E40002C312C0069002C692C302C002C692C31A1
:100E50002C0032002C692C322C0073002C732C30A7
:100E60002C002C732C312C3135002C732C322C316E
:100E7000340033002C732C332C30303534003400E4
:100E80002C732C342C32000035002C732C352C356F
:100E9000000036002C732C362C32000037002C73E7
:100EA0002C372C31000045002C732C452C30303071
:0C0EB000310046002C732C462C30300022
:00000001FF
