:1000000012C0189518951895189518951895189563
:100010001895189518951895189518951895189578
:100020001895189518958FE58DBFC0E4E0E44E2E25
:1000300084E08EBFD4E0F4E05F2EA89584B7082E4C
:10004000877F84BF88E1992781BD91BDEEEFF3E002
:10005000A0E6B0E088278D933197E9F78CE089B965
:1000600080E080BD88E18AB966248FEF87BB8D9AD6
:100070008E9A8F9AA298A39874B7777F74BF8BE1FA
:1000800081BD83E081BDB99A81E88FBD81E08EBDDD
:1000900086E886B980E487B9379AE0E0F0E0A0E12D
:1000A000B0E0EFD4003281E008F480E08F93E0E02C
:1000B000F0E0A0E1B0E0E5D40D3781E010F009F008
:1000C00080E09F918923882309F406C0E0E0F0E0F6
:1000D000AFE9B0E0D6D403C080E280939F00A0EAED
:1000E000B0E0EFE9F0E070D481B5886081BD709137
:1000F000970071607093970000919F00003209F0A3
:1001000005C0709197007260709397009BD3AFE722
:10011000B0E08C9300917F00013009F01CC096D3B1
:10012000A0E8B0E08C9340919F00009180000417FC
:1001300081E009F080E08F93009180000E3781E02C
:1001400009F080E09F91892B882309F404C08BEC8F
:100150008093910037C000919100003010F009F0B9
:1001600001C005C080919100815080939100009161
:100170009100083C09F001C0959A0091910000306F
:1001800009F001C0959800919700003009F002C075
:10019000979A01C09798A2E3B0E08C9187FB80F911
:1001A000809580FBA2E3B0E08C9186F98C93A895B2
:1001B000EF93FF93E0E6F0E066D3FF91EF91A6CFD7
:1001C000F894FFCF7ED4A1E8B0E0E9E028D376D45C
:1001D00082E0E1E8F0E001E00A93ADE8B0E02BD482
:1001E00084E0E1E8F0E001E00A93AFE8B0E023D476
:1001F00086E0E1E8F0E004E00A93A2E9B0E01BD475
:10020000A2E9B0E0F9D3ABE8B0E00D931C93ADE800
:10021000B0E0E8ECFAE03FD409F0C8C0AFE8B0E0E5
:10022000EAECFAE038D409F085C0A2E9B0E08C919C
:10023000803009F43EC0ABE8B0E00D911C910F3165
:1002400050E0150710F009F001C006C08FE190E002
:10025000ABE8B0E08D939C93ABE8B0E00C9100FB71
:100260000EF002C0C09A01C0C098ABE8B0E00C919B
:1002700001FB0EF002C0C29A01C0C298ABE8B0E028
:100280000C9102FB0EF002C0C39A01C0C398ABE808
:10029000B0E00C9103FB0EF002C0C49A01C0C498F8
:1002A000ABE8B0E00C9104FB0EF002C0C59A01C0AF
:1002B000C59880E090E0A8E9B0E08D939C93C09B46
:1002C00005C0A8E9B0E07C9171607C93C29B05C039
:1002D000A8E9B0E07C9172607C93C39B05C0A8E95B
:1002E000B0E07C9174607C93C49B05C0A8E9B0E049
:1002F0007C9178607C93C59B05C0A8E9B0E07C91B7
:1003000070617C93AAE9B0E0E8E9F0E05FD3E0EA4D
:10031000F0E0A0E6B0E08AD3A0E6B0E077D2ECEC63
:10032000FAE0D4D2EAE9F0E0A0E6B0E06FD27ED302
:1003300051D23BC0E2EDFAE0AED309F036C0A2E9FB
:10034000B0E08C91803009F419C0ABE8B0E00D91B9
:100350001C910F3F50E0150710F009F001C006C0D6
:100360008FEF90E0ABE8B0E08D939C93ABE8B0E00A
:100370008D919C9190934B0080934A00AAE9B0E044
:10038000EAE4F0E023D3E0EAF0E0A0E6B0E04ED308
:10039000A0E6B0E03BD2E4EDFAE098D2EAE9F0E082
:1003A000A0E6B0E033D242D315D2B0CEADE8B0E093
:1003B000EAEDFAE070D309F07FC0AFE8B0E0EAEC14
:1003C000FAE069D309F02CC080E090E0A8E9B0E041
:1003D0008D939C939A9905C0A8E9B0E07C917160D7
:1003E0007C939B9905C0A8E9B0E07C9172607C93F6
:1003F000AAE9B0E0E8E9F0E0E9D2E0EAF0E0A0E65E
:10040000B0E014D3A0E6B0E001D2ECEDFAE05ED2A9
:10041000EAE9F0E0A0E6B0E0F9D108D3DBD14BC0C7
:10042000E2EDFAE038D309F021C007B1007F0060A7
:1004300007B951D2A8E9B0E08D939C93AAE9B0E046
:10044000E8E9F0E0C3D2E0EAF0E0A0E6B0E0EED206
:10045000A0E6B0E0DBD1E2EEFAE038D2EAE9F0E083
:10046000A0E6B0E0D3D1E2D2B5D125C0E8EEFAE003
:1004700012D309F020C007B1007F016007B92BD269
:10048000A8E9B0E08D939C93AAE9B0E0E8E9F0E038
:100490009DD2E0EAF0E0A0E6B0E0C8D2A0E6B0E08D
:1004A000B5D1EAEEFAE012D2EAE9F0E0A0E6B0E077
:1004B000ADD1BCD28FD12ACEADE8B0E0E0EFFAE00A
:1004C000EAD209F010C1AFE8B0E0EAECFAE0E3D21A
:1004D00009F051C0A2E9B0E08C91803009F433C03A
:1004E000ABE8B0E00D911C91073050E0150710F01B
:1004F00009F001C006C087E090E0ABE8B0E08D9362
:100500009C93ABE8B0E00C9100FB0EF005C070913D
:1005100097007E7F70939700ABE8B0E00C9101FBF1
:100520000EF005C0709197007D7F70939700ABE847
:10053000B0E00C9102FB0EF006C0A7E9B0E08C9190
:1005400094E089278C93AAE9B0E0E7E9F0E03CD297
:10055000E0EAF0E0A0E6B0E069D2A0E6B0E056D173
:10056000E2EFFAE0B3D1EAE9F0E0A0E6B0E04ED184
:100570005DD230D1B7C0E2EDFAE08DD209F00DC006
:10058000E0EAF0E0A0E6B0E051D2A0E6B0E03ED173
:10059000E8EFFAE09BD11ED1A5C0E8EEFAE07BD2ED
:1005A00009F00DC0E0EAF0E0A0E6B0E03FD2A0E63E
:1005B000B0E02CD1E0E0FBE089D10CD193C0EAE0BF
:1005C000FBE069D209F018C0A4EAB0E0ECE0FBE07F
:1005D0007DD1E0EAF0E0A0E6B0E028D2A0E6B0E00D
:1005E00015D1E4E1FBE072D1E4EAF0E0A0E6B0E08E
:1005F0000DD11CD2EFD076C0EAE1FBE04CD209F07D
:1006000018C0A4EAB0E0ECE1FBE060D1E0EAF0E081
:10061000A0E6B0E00BD2A0E6B0E0F8D0E0E3FBE06B
:1006200055D1E4EAF0E0A0E6B0E0F0D0FFD1D2D0BE
:1006300059C0E6E3FBE02FD209F00DC0E0EAF0E09C
:10064000A0E6B0E0F3D1A0E6B0E0E0D0E8E3FBE064
:100650003DD1C0D047C0E4E4FBE01DD209F00DC09D
:10066000E0EAF0E0A0E6B0E0E1D1A0E6B0E0CED074
:10067000E6E4FBE02BD1AED035C0E2E5FBE00BD2E7
:1006800009F00DC0E0EAF0E0A0E6B0E0CFD1A0E6CE
:10069000B0E0BCD0E4E5FBE019D19CD023C0EEE58E
:1006A000FBE0F9D109F00DC0E0EAF0E0A0E6B0E02F
:1006B000BDD1A0E6B0E0AAD0E0E6FBE007D18AD049
:1006C00011C0EAE6FBE0E7D109F00CC0E0EAF0E097
:1006D000A0E6B0E0ABD1A0E6B0E098D0ECE6FBE05D
:1006E000F5D078D013CDADE8B0E0E6E7FBE0D3D1AC
:1006F00009F06DC0AFE8B0E0EAECFAE0CCD109F067
:1007000010C0E0EAF0E0A0E6B0E090D1A0E6B0E0F2
:100710007DD0E8E7FBE0DAD05DD0E1E0F0E0ADD0FD
:1007200055C0E2EDFAE0B7D109F050C0ABE8B0E057
:100730000D911C91003250E0150781E008F480E033
:100740008F93ABE8B0E00D911C910D3750E0150789
:1007500081E010F009F080E09F918923882309F45B
:100760000BC0E0E0F0E0ABE8B0E07BE779D1E0E09F
:10077000F0E0AFE9B0E085D1E0EAF0E0A0E6B0E07B
:1007800055D1A0E6B0E042D0E2E8FBE09FD0A0E681
:10079000B0E03CD0EFE9F0E017D11CD081E090D080
:1007A000A881B981EFE9F0E00FD1E881F981A0EAF1
:1007B000B0E073D10FB681E0481A80E0580A229663
:1007C0000FBE09F403C0E1E0F0E057D09FCC9ECC0F
:1007D000F894FFCFA0E6B0E091D0A3EAB0E08C930C
:1007E000E0E6F0E0A8E2B4E021D1A8E2B4E00ED067
:1007F000EAE8FBE06BD0A8E2B4E008D0E3EAF0E07E
:100800009DD02CD033D00895F894FFCF8F938D9145
:100810008823E9F711978F910895A8E2B4E01AD0E0
:100820008D3039F0EE23D9F38D93EA9563FE21D014
:10083000F6CF63FC04C08DE01CD08AE01AD0882774
:100840008C93089581E05F9B8827089588275F9B9C
:10085000089500C05F9BFECF8CB10895A8E2B4E07C
:100860008D91882311F005D0FBCF08958DE001D044
:100870008AE05D9BFECF8CB9089588EE93E00CD0A2
:100880003197D9F708953197F1F70895689462F890
:100890000895E89462F80895EF93FF93EE27E82B0C
:1008A000E92B31F0E0EDF7E03197F1F70197D1F75F
:1008B000FF91EF9108950191119121913081089557
:1008C00099275A924A92480E591E08950DD00D92BA
:1008D0000020E1F70895369A3699FECF369A369978
:1008E000FECF84B195B10895C89531960020089542
:1008F000813618F08B3708F48F7D089588279D91F5
:10090000890F9923E1F70895000F111F221F331F4C
:10091000089500951095209530950F5F1F4F2F4F2C
:100920003F4F0895019110810BC0C5DF0BC00191AD
:10093000108117FF05C03FEF2FEF04C00081112782
:100940002227332737FF03C0E4DF8DE28D93CF9258
:10095000DF92EF92AA24BB24CC24DD24EE2440E2D3
:10096000EAE0FF2755E093E38081890F87FD9F70C0
:1009700083FD907F891B81935A95A9F7C5DFAA1C37
:10098000BB1CCC1CDD1CEE1C4A9551F7E894EFE033
:10099000FF2782910CD0EB30E0F71EF068948A2D8F
:1009A0000AD088278D93EF90DF90CF900895982FED
:1009B000829501D0892F8F70805D26F0803309F4F5
:1009C000089568948D93089541E003C042E001C00A
:1009D00044E0E40F8827F81F8291982F829505D074
:1009E000892F03D04A95C1F71EC08F708A3008F056
:1009F000895F805D8D930895002711272227332773
:100A00008D91882379F080DF7FDF7EDF7DDF70DFEF
:100A1000815408F4895F865F080F8827181F281FF4
:100A2000381FEECF089588278D93089581918D9377
:100A30008823E1F7089509919191992351F08A95BE
:100A4000D9F73197002329F081918D930A95882356
:100A5000C9F7E9CFE199FECFEEBBFFBB3196089510
:100A600091E001C092E07B3751F47FB7F894F2DF58
:100A70008D918DBBE29AE19A9A95C9F77FBF77274E
:100A8000089591E001C092E0E5DFE09A8DB38D9387
:100A90009A95D1F70895689401C0E894AF93BF93F5
:100AA0008D9116F0919102C01FDF902D891718F0DB
:100AB00011F48823A9F7BF91AF910895E89463F8E2
:100AC0000895689463F808956F0030002C6F2C30FF
:100AD0003A0031002C6F2C313A0069002C692C301F
:100AE0003A002C692C313A0032002C692C323A0041
:100AF00073002C732C303A002C732C313A383400AC
:100B00002C732C323A4F455355003300322E322E7F
:100B1000363400002C732C333A00340030312D3041
:100B2000392D323032302032333A31323A343200D9
:100B30002C732C343A0035002C732C353A312E307E
:100B40002E30000036002C732C363A322E312E31E6
:100B5000000037002C732C373A3032303500380023
:100B60002C732C383A303230410039002C732C3938
:100B70003A303130380075002C752C303A30303036
:0C0B800031002C752C313A30300023007D
:00000001FF
